:1000000010C02AC029C028C027C026C025C024C0CF
:100010002EC022C021C021C01FC033C01DC01CC0C3
:100020001BC011241FBECFE5D1E0DEBFCDBF10E065
:10003000A0E6B0E0ECEBF1E002C005900D92A23634
:10004000B107D9F710E0A2E6B0E001C01D92A736D3
:10005000B107E1F795D0B0C0D3CF1F920F920FB682
:100060000F9211240F900FBE0F901F9018951F92A2
:100070000F920FB60F9211240F900FBE0F901F908A
:1000800018951F920F920FB60F9211242F933F9342
:100090004F935F936F938F939F9384B190E065B17B
:1000A0004091650050916600362F20E0822B932B03
:1000B000840F951F90936600809365008091640083
:1000C0008F5F8093640080916400803408F44CC09A
:1000D000809165009091660026E0969587952A9517
:1000E000E1F7909363008093620010926600109293
:1000F000650010926400809162009091630022E09C
:100100008138920718F081E088BB01C018BA2091AD
:10011000620030916300809160009091610080588E
:100120009D4F821B930B909361008093600023E0AE
:100130008939920730F088E993E0909361008093C9
:10014000600080916000909161008C3D910530F4D9
:100150008CED90E09093610080936000809160004E
:100160009091610099BD88BD9F918F916F915F9132
:100170004F913F912F910F900FBE0F901F901895A8
:10018000C09AB89ADD98D59A009881E087B99BEA21
:1001900096B994E093B993E093BF89BF83E28FBD92
:1001A00089E18EBD88EE93E09BBD8ABD8CED90E029
:0C01B00099BD88BD7894FFCFF894FFCF74
:0201BC00DC0065
:00000001FF
